:020000040800F2
:100000003007002039460008C1410008C3410008FC
:10001000C5410008C7410008C941000800000000B0
:10002000000000000000000000000000CB410008BC
:10003000CD41000800000000CF410008D141000878
:1000400081460008854600088946000811430008DB
:100050008D46000891460008C742000895460008F2
:10006000994600089D460008A1460008A5460008DC
:10007000A9460008AD460008B1460008B54600088C
:10008000B9460008BD460008C1460008C54600083C
:10009000C9460008CD460008D1460008D5460008EC
:1000A000D9460008DD460008E1460008E54600089C
:1000B000E9460008ED460008F1460008F54600084C
:1000C000F9460008FD4600080147000805470008FA
:1000D000094700080D4700081147000815470008A8
:1000E000194700081D470008214700082547000858
:1000F00029470008000000002D470008314700088C
:1001000000000000000000003547000839470008E3
:100110003D47000841470008454700084947000897
:100120004D470008DFF858080269536832211970FA
:100130002821026953685970322102695368997005
:10014000032102695368D970026953681971026901
:10015000536859710269536899710721026953689C
:1001600019720A21026953685972012100694268B3
:10017000D1710A205AE138B500F072FBDFF800486F
:1001800000281FBF206901680A78132A1CD1206942
:10019000E268016812780978202A18BF222A0D46E1
:1001A00004D1C069021D52F83110884720690068E7
:1001B0000178A94204D1426822F04002426031BD78
:1001C000416841F04001416031BD2DE9F84FDFF851
:1001D000B0673069D0F808A00068416821F080015C
:1001E0004160002730698189002500240229A14649
:1001F000A04640F3DE80A3460EE029B2814207DA32
:10020000054605E021B28142F7DA25460446D84684
:100210000AF10C0A0BF1010B306980895FFA8BF14E
:1002200081420DD2504600F09CFB002848BF0020C0
:100230008742E7DA25463C46C8460746D946E7E7FF
:100240003169ADF8007022B24B685F787F087F1E7D
:10025000BA4275DBBDF900204F692BB2D31A5FFAA1
:1002600089F2424307EB42004A8B098B5FFA88F818
:10027000641B30F9180059439BB2A4B289B2E41848
:1002800091FBF4F10028CEBF01EB40014042C1EBED
:100290004001F0680078202818BF212809B208D151
:1002A0000029D8BF01F58071891A09B281F30801CC
:1002B00000E0C9B2306903685C68C4F3C03000284C
:1002C0003469CAB23DD05D78CFB2BD4212D2501B64
:1002D000FF280FDA6768787A4519ADB2A94201DACA
:1002E000F8793BE000F07EF863D100F094F820F458
:1002F0000040686001F1FF005D78A84212DA64688E
:10030000607A451901F58077ADB2AF4201DAE07944
:1003100040E000F05AF800284BD100F071F820F4CA
:10032000004058603069036859703069416800685E
:100330000B7A8178C3F10803DA40D4B2A1423AD1F2
:1003400037E05878CDB2854215D2851AFF2D12DAE2
:1003500065686F7A7F18B84205DAE879596860F302
:100360000D21596025E000F03DF822D100F053F84E
:1003700040F4004068605D7805F1FF0080B288427B
:10038000D0DA6068447A05F58075ADB26418A5428C
:1003900007DAC079596860F30D213069026851604D
:1003A00007E000F012F820B900F02AF840F400400D
:1003B000B7E7022007E0827030690068416841F0C9
:1003C000800141600020BDE8F28F586820F47C5421
:1003D000000A401E000200F47C5020435860C0F325
:1003E000052070475D6825F47C502D0A6D1E2D0296
:1003F00005F47C5528435860C0F305200028704759
:10040000306943680068DB79406863F30D20336925
:100410001B6858607047306945680068ED7940682E
:1004200065F30D2035692D686860704738B5DFF8D1
:10043000505504462869006800210170426842F066
:1004400040024260032000F0FCF9DFF838058188A3
:10045000042902D0102902D003E0022104E0042183
:1004600002E00821818003212A6980881368041929
:10047000DFF81405DC700180BDE8314060E2DFF890
:1004800000050169086813220270416841F04001CB
:1004900041600020D5E1DFF8E814CA681278002036
:1004A000202A18BF222A05D10869C169006802788C
:1004B00011F83200704738B500F0ECF9DFF8C044AD
:1004C00010B100F01CF920B921690A680A201070E7
:1004D00031BD0DE038B500F0DDF9DFF8A44410B10E
:1004E00000F00DF920B921690A680C20107031BDA7
:1004F00000F0CCF808B902220A7031BD38B500F01E
:10050000C9F9DFF87C4438B900F0FEF810B90D22C3
:100510000A7031BD0F201AE000F0B3F850B96868D6
:100520002A680179D17021690968C87800B9B6E0F4
:100530000B200CE000F026F850B968682A68C178F2
:10054000D17021690968C87800B91FE001200870DE
:1005500031BD38B500F09EF9DFF8244468B1256953
:1005600000F010F848B92968C87808B1401EC87072
:1005700021690A68D07820B908E021690A68022058
:10058000107031BD68688078012197E1BDE8324084
:100590004CE72DE9F041DFF8E853DFF8E8832C69F8
:1005A0002068B8F80420C178D2B28A4202D2491E2B
:1005B000C17052E000F06EF960B96068226881791C
:1005C000D17029690968C87810B90D220A7044E011
:1005D0000E2041E0A768002602E0BC800C37761CA4
:1005E00028698289F1B291421BD20168CA78B8F8B1
:1005F00004107C89C9B28A4207D12146384600F0EE
:100600003DFD0028E9D1B88027E0B9886118B9809C
:1006100089B2A142E2D20021B9800D2200680270A5
:100620001BE000F0F5F829690A68D078A8B9886855
:1006300000210AE0DFF8503382881C88E240828083
:10064000491C0022827102810C302A699489CBB244
:10065000A342EFD3116802200870BDE8F08138B5DD
:1006600000F018F9DFF8184330B100F00AF818B9B3
:1006700000F00CF820B912E021690A68022010701D
:1006800031BD25696868007801212AE12968C878A8
:1006900008B1401EC87021690968C87870470A22ED
:1006A0000A70BDE83140B9E07CB500F0F3F8DFF83E
:1006B000D04230B900F028F808B90D221AE0112014
:1006C0001BE000F01CF888B900F051F816BF222892
:1006D000286AF0688168884700B95FE0B079811EB8
:1006E0003E290BD200F050F840B95AE000F044F82F
:1006F00010B902220A7073BD0420087073BD256909
:10070000686840780121FDE02069416800688A79C5
:10071000C27021690968C87870477CB500F0BAF8E2
:10072000974C30B9FFF7F0FF08B90D221AE01220FC
:100730001BE0FFF7E4FF88B900F019F816BF222884
:10074000286AF0688168884700B927E0B079811E7F
:100750003E290BD200F018F840B922E000F00CF866
:1007600010B902220A7073BD0520087073BDE068DD
:10077000844E00782028704768682A684179D170D3
:1007800021690968C878704721690A68137903F0FC
:100790003F038DF80030694600F0C5BC00F03EF81C
:1007A00073BDFFF743FE73BD1CB500F073F8744CC6
:1007B00048B9206900F02CF821690968C87830BB75
:1007C0000D220A7013BDFFF766FE8DF800009DF83C
:1007D000000000F05F008DF800009DF80000012887
:1007E00006D0022806D0042806D0082806D00AE041
:1007F000022104E0062102E00A2100E00C21206928
:100800000268117013BDBDE8164000200EE613BD4E
:100810000168C87808B1401EC870704730B55B48A1
:10082000016821F00201016055490B691C688A7852
:10083000656862F305056560036843F002030360C1
:1008400030BD30B500F021F805E0156860F3C4054F
:1008500042F80C5B5B1C8D89DCB2AC42F5D330BD39
:1008600030B5474801698A680220002308E014680F
:10087000E50703D564086400146000200C325B1C9B
:100880008D89DCB2AC42F2D330BD3D4909698A683A
:100890000023704710B53A4800698168002200E0E3
:1008A000521C8489D3B2A34206D251F80C3B5B0898
:1008B0009C07F5D5002010BD022010BDF8B500F052
:1008C00039F801E00C367F1C00F02DF807D200F05B
:1008D0002EF8214649428142F4DB0020F2BD02207D
:1008E000F2BDF8B500F026F801E00C367F1C00F0F0
:1008F0001AF805D200F01BF8A042F6DB0020F2BD8A
:100900000220F2BDF8B500F015F801E00C367F1CAE
:1009100000F009F805D200F00AF88442F6DA002067
:10092000F2BD0220F2BDA989F8B288427047F9B23F
:10093000304616E0044612480569AE680027704745
:1009400030B50F4801698968002204E000238B80DC
:100950008B710C31521C0469A589D3B2AB42F5D31B
:1009600030BD074A13691A6932F81110B0F908004E
:10097000B1F5807F1CBF4843000A00B270470000F9
:1009800004030020400100202803002010E000E0C4
:1009900070B5DFF8A4260B4652F8232002F00704B6
:1009A000012350F82450C2F3C40203FA02F21543A3
:1009B00040F8245001F00F024D0005F01E05090912
:1009C00003FA05F493400326062906FA05F536D8FE
:1009D000DFE801F0040E183535222C008168C2686A
:1009E0000D43016985601443C4600B43036170BD0E
:1009F000416982690D43C1694561144384610B43B8
:100A0000C36170BD016A426A0D43816A0562144385
:100A100044620B43836270BDC16A026B0D43416B3C
:100A2000C562144304630B43436370BD816BC26BA7
:100A30000D43016C14430B438563C463036470BDB1
:100A40002DE9F04FDFF8F405DFF8F4254568DFF80D
:100A5000F405DFF8F435816841F000418160D5F894
:100A60000090B5F80CA003210027C9E0056899F8AB
:100A700001404FEA141C53F82C402543056002F155
:100A8000500E056899F802404FEA141C53F82C40A8
:100A9000254305607F1C99F80140250903EB850576
:100AA00004F00F042E6AB6F80080012505FA04F45C
:100AB00044EA0804348002F1500699F801404FEAF4
:100AC000141856F82860B6F8048004F00F0405FAEC
:100AD00004F4E44304EA0804B48002F1500699F8EF
:100AE00002404FEA141856F82860B6F8048004F063
:100AF0000F0405FA04F4E44304EA0804B48002F1A4
:100B0000500699F801404FEA141856F82860D6F8B4
:100B10000880640004F01E0401FA04F428EA0404C6
:100B2000B46002F1500699F802404FEA141856F8E2
:100B30002860D6F80880640004F01E0401FA04F46A
:100B400028EA0404B46002F1500699F801404FEA23
:100B5000141856F82860D6F80C80640004F01E04BF
:100B600001FA04F428EA0404F46002F1500699F84A
:100B700002404FEA141856F82860D6F80C8064003A
:100B800004F01E0401FA04F428EA0404F46099F85D
:100B900001604FEA16185EF8284006F00F0605FAC5
:100BA00006F6668399F802604FEA16185EF8284048
:100BB00006F00F0605FA06F6668302F1500899F86A
:100BC000014000F02AF806F01E0E266801FA0EFB1E
:100BD00026EA0B0605FA0EFE4EEA0606266099F88E
:100BE000024000F01AF806F01E0E266801FA0EFB0D
:100BF00026EA0B0605FA0EF53543256009F10309CF
:100C0000FDB25545FFF632AFDFF84004016821F030
:100C1000004101600020BDE8F08F4FEA141C66001F
:100C200058F82C4070472DE9F041DFF81014DFF838
:100C300010444A68DFF8188402EB0010E0640021D9
:100C4000002204F10803002643F8212048F821601F
:100C5000491C1129F8DB818961802270A2804668D5
:100C6000076800251EE0E06C816832780C20424362
:100C70008B58C3F3C10090B1797804F10800FFF7F5
:100C800087FEB9784046FFF783FE97F90020A088D9
:100C9000012191400843A0802078401C2070FF1C57
:100CA000761C6D1C6188E8B28842DCD3A069616A59
:100CB00020676167206BA0670020BDE8F08170B5F8
:100CC0000021DFF88C23DFF88C33012404FA01F5CE
:100CD00005EA0006AE4204D05D8802EB81066D1C79
:100CE0007564491C0B29F1DB70BD2DE9F84F002418
:100CF0000025A04672B6D148D14F4068026883896A
:100D0000A44607F1500617E051784FEA111E56F835
:100D10002E90D9F800A04900032000F07CF90CF1D6
:100D2000010C91784FEA111E56F82E90D9F800A0C8
:100D3000490000F070F9D21C5FFA8CF09842E3DBB6
:100D400062B6C248C24E0168BA683068BF4B0243FF
:100D5000914319605A68F968706801438A435A6080
:100D600072B6BD48BC4B818ABA693069024391436F
:100D700099821A683B69B068796903439A43F068BD
:100D8000B54B0A4302431A60B449B44B8A8A796A64
:100D9000F06901438A439A821A68FB697069396A6B
:100DA00003439A43B069AD4B0A4302431A6000F013
:100DB0002BF98A439A821A68B86A316A08438243D7
:100DC000F86A716A02430A431A6062B6322000F080
:100DD00057F972B6A0490A683B69B06803439A4361
:100DE0000A609E4A1368F969706901438B43136076
:100DF0009B490B68BA6A306A024393430B60964A78
:100E0000938AB969306901430B43944993828A8A72
:100E1000796AF069914B01430A439A8200F0F4F831
:100E20000A439A8262B689490A68B86802430A602E
:100E30004B68F86803434B6072B6874A1168F068E4
:100E40000143116085490B68B06903430B60844915
:100E50000A68706A02430A6062B67F4A128A386F73
:100E6000024202D09043012538677C4B1B8A786F81
:100E7000034202D0984302257867B1F810C0B86FDA
:100E80001CEA000F04D020EA0C000425B86702E039
:100E9000E8B2002843D0F86C0068ADF802204FF0AB
:100EA000000E4FF00109ADF8003016E0E0460AEA06
:100EB000080BD3450ED106EB8202546490F9002052
:100EC00009FA02F2D2431340BB804278120909FAB0
:100ED00002F29543C01C0EF1010E7B885FFA8EF280
:100EE0009A421CD2027809FA02F31FFA83FABB88ED
:100EF0000AEA030BD345EDD190F801B00BF00F0ACD
:100F00005FEA1B1B09FA0AFA06D0BBF1020FCDD02B
:100F100038BFBDF80080CAE7BDF80280C7E7641C8F
:100F2000A4B272B64C4A1368B068834313604B484E
:100F300003687269934303600A68306A22EA00001A
:100F4000086062B6414A1168306801431160536815
:100F500071680B43536013683068834313605168B2
:100F60007068814351603B494A88B888A24203DBDC
:100F700000287FF461AF02E0FFF7A1FE00BF72B668
:100F800003212E4840680268838900242AE05578AE
:100F900007F150064FEA151C56F82CE0012005F029
:100FA0000F0500FA05F5AEF81A50641C95784FEA63
:100FB000151C56F82C6005F00F0500FA05F5758331
:100FC00007F1500C557800F013F800FA08F848EAD9
:100FD00006062E60957800F00BF800FA08F0304312
:100FE0002860D21CE0B29842D1DB62B6BDE8F18F36
:100FF0006E002D095CF8255006F01E082E6801FAD7
:1010000008F926EA090670471549154B8A8A396B93
:10101000B06A0143704701F01E0100FA01F12AEAAB
:101020000101C9F80010704700207047084901EB22
:101030008000406C80B270472C4000080403002000
:10104000600000201C380240DC000020087C0040CA
:101050004002002040010020000002400004024045
:10106000000802400020704701207047401A00B27B
:101070007047401A80B270470020704701207047C7
:1010800081B0ADF8000004E0BDF80000401EADF8EE
:101090000000BDF800000028F6D101B0704730B460
:1010A000002513E050F8042BD30744BFA9F1010336
:1010B0009A18091F042942F8045BFAD213468C07D8
:1010C00044BF15809B1CC90748BF1D7050F8041B06
:1010D0000029E7D130BC704720480188491C0180B5
:1010E0001F490A88521C93B2B3F5FA6F08DB827865
:1010F000521C8270D2B2402AA4BF00228270002209
:101100000A80704730B500F021F8238800D12BE029
:101110000C880C881C1B4004A4B2B4EB104F01D304
:101120000B8025E02DE030B500F010F8A37800D159
:101130001AE00C78A3420C78AEBF1C1B1C1B403479
:10114000E4B2844201D30B7012E01AE0054A034C6A
:10115000136823F0020313600500704704030020A6
:101160002A03002010E000E000F006F8022030BD65
:1011700000F002F8002030BD106840F0020010605E
:101180007047FFF7F9FF012030BD00001FB50FF2D7
:10119000A46000F0CFFD00F0BDF800F034FA044682
:1011A00000F0B8F8A4F66830B52812D396220121D1
:1011B0000FF2886000F007FE00F0ACF869462046A8
:1011C00000F0A8F900F02EFA00F0A4F800F0A2F860
:1011D000ECE70FF2746028E01FB50FF2746000F0C6
:1011E000A9FD00F097F800F04DFA00F06BFE00F05A
:1011F00090F8DFF8C405001941F28931884212D312
:1012000000F080F80FF2506000F0DDFD00F082F891
:101210006946204600F07EF900F052FA00F07AF8B4
:1012200000F078F8ECE70FF23C6000F083FD00F08E
:1012300071F81FBD38B50FF23460DFF8804500F05B
:1012400079FD00F067F800F0C8F90546207800F055
:101250004FFE294600F05AFE00F07EFA00F079FABF
:1012600000F0C0FE054600F0EEF900F053F82078DB
:101270001F2800DA98B9DFF8481500200870962278
:1012800001210FF2F05000F09EFD00F043F82846D7
:1012900000F0D9F900F03EF800F03CF8EBE70FF26F
:1012A000E05000F047FDBDE8324028E010B50FF2F5
:1012B000D85000F03FFD00F02DF800F09FFA00F04C
:1012C00001FE00F026F8A4F1FA0040F2272188423E
:1012D0000FD300F017F80FF2B85000F074FD00F0D3
:1012E00019F8204600F0AFF900F014F800F012F8F9
:1012F000EFE70FF2AC5000F01DFDBDE81040962066
:1013000001F03FB9DFF8B8040022027001219622F3
:10131000704784B2962001F034B980B50FF288503E
:1013200000F008FDFFF7F6FFBDE80240062001F0DF
:1013300015BB3EB50FF278510FF2885591E81C00AD
:10134000684680E81C0001F074FC0121DFF8740499
:10135000DFF86C4401F080FC01F077FCDFF86804F2
:101360008021018040220280DFF860044178027809
:1013700001F0F70102F0F7024170027001F0FD0187
:1013800002F0FD02417002700FF2305000F0D2FC0A
:10139000FFF7C0FF562148F23202ADF80210ADF857
:1013A000042048F230013422ADF80610ADF80820D0
:1013B000684600F0D1FCFFF7ADFFFFF7ABFFFFF78A
:1013C000E5FEFFF709FFFFF735FFFFF76FFFFFF7B8
:1013D000A4FF96220121284600F0F5FC0020207091
:1013E000F7E770B5DFF8D403DFF8E443007821882D
:1013F000DFF8CC6388423CBF081A208000F0EDF88B
:101400000546208800F074FD294600F07FFD00F0BD
:10141000A3F900F09EF9044600F0E4FD054600F053
:1014200012F9FFF777FF2046DFF8A81301F0CAFC96
:1014300004D9DFF8A41301F0D7FC11D200203070DA
:10144000962201210FF2884000F0BDFCFFF762FFF9
:10145000284600F0F8F8FFF75DFFFFF75BFFEDE7C8
:101460000FF27C400FF25C4400F064FCFFF752FF87
:1014700096220121204600F0A6FC00203070F7E7FC
:10148000F8B596220121D548D54C00F09CFC0520EA
:1014900001F064FA064600F0A0F80746304600F076
:1014A00027FD0146384600F031FD4FF066550146F4
:1014B000284600F02BFD0146204600F027FD00F0F5
:1014C00091FD00F0C0F801F0B4FBF1B2BB4801F0AF
:1014D000C3FB01F0BAFB052001F040FA064600F01C
:1014E0007CF80746304600F003FD0146384600F020
:1014F0000DFD0146284600F009FD0146204600F09A
:1015000005FD00F06FFD00F09EF84FF4487001F00B
:1015100038F8E0E7F0B542F21073B0FBF3F342F2B3
:10152000107202FB13034FF47A721446B3FBF4F407
:1015300002FB143364256424B3FBF5F504FB153377
:101540000A260A25B3FBF6F605FB16339BB2C61A2C
:10155000B6FBF5F69446B6FBFCFC02FB1C62A64605
:10156000B2FBFEFE04FB1E220A26B2FBF6F605FBCA
:10157000162292B2861AF61AB6FBF4F6A446B6FB09
:10158000FCFC04FB1C64AE46B4FBFEFE05FB1E44E3
:10159000A4B2061BB61AF71A4FF47A76B7FBF6F622
:1015A0000A27B6FBF7F705FB176503F130060E8136
:1015B00004F1300702F13006CE808F8005F130064D
:1015C000ADB2401B001B801AC01A42F21072B0FB71
:1015D000F2F04E8030300880F0BD80B501F067F940
:1015E00001F014FC02460B467E487F4901F01CFCCA
:1015F00000227E4B01F03CFD01F00CFEBDE80440F2
:101600007B4900F083BC1FB5FFF7E7FF00F05AFCF1
:101610000446694680B2FFF77DFF00F003F8A0B2F0
:1016200004B010BD5621ADF80A102022BDF80210FA
:10163000ADF8082041F40041ADF80210ADF80020EB
:10164000684600F089BBE0B56946FFF763FF4122B9
:10165000B521ADF80A20ADF808106846BDF80020A5
:10166000418841F40041302A18BF418007D1ADF8CC
:1016700000108188C288418082802021C18000F0D2
:101680006BFB07BD3EB5002001E03EB5012001F037
:1016900065F900F02DFC0446FFF79FFF214600F09E
:1016A00035FC00F059F8534900F030FC044600F0D6
:1016B00099FC6946FFF72EFF00F002F820463EBD78
:1016C0004120ADF80A006D21BDF80000ADF808100A
:1016D00040F400402022ADF80000ADF80620684636
:1016E00000F03ABB10B5022001F038F900F02DF8F7
:1016F000B8BF401A8AE0000010B5032001F02EF9AF
:1017000000F023F8B8BF401A80B200F0F1FB0446A5
:10171000FFF763FF214600F0F9FB00F01DF800F031
:1017200018F8044600F0CEFB3349884205DA20461B
:1017300000F058FCFFF787FF05E000F030FB00BF2A
:1017400069A000F0F7FA204610BD1C4909788142D3
:101750007047234900F0DABB4FF0665100F0D6BB6A
:1017600038B5042001F0FAF8144C21788142B8BF52
:10177000401A80B200F0BCFB0546FFF72EFF294659
:1017800000F0C4FBFFF7E8FFFFF7E3FF054600F0BA
:1017900099FB1949884205DA284600F023FCFFF737
:1017A00052FF06E0607820B900F0F9FA4EA000F090
:1017B000C1FA284632BD000090E8FFFF000008088B
:1017C0002E030020010008081A040240260300200E
:1017D000020000200100E1430000164374450008A8
:1017E0000000A0412FDD24068195F33F0000B040AA
:1017F00000007A440000C8429F86010010B5052011
:1018000001F0ACF8FFF7A1FFB8BF401A80B200F0BA
:101810006FFB0446FFF7E1FE214600F077FBFFF780
:101820009BFFFFF796FF044600F0DCFBFFF70BFF82
:10183000204610BD20564444200000005644442059
:101840004552524F52200000564444204F4B000056
:1018500052554E202020000052554E204552524FE6
:101860005220000052554E204F4B00004249415338
:101870002020200042494153204552524F5220001F
:10188000424941534F4B000053544F502020000019
:101890004943432053544F50204552524F52200049
:1018A00053544F504F4B00005354425920200000D6
:1018B000200020002000200020002000205445535C
:1018C0005420000054455354204F4B20000000008A
:1018D0004943432053544259204552524F5220000D
:1018E000535442594F4B00004572726F7200000012
:1018F00000B54FF4701185B00020019100900C22CA
:101900004021049002920391684601F0B7FC012047
:1019100001F0DCFC4FF4805001F0F4FC002001F0F9
:10192000DDFC402001F0D5FC01F0C7FC012001F0F6
:10193000C1FC012001F0EFFC0028FAD0102001F0DA
:10194000EAFC0028FAD04FF48041002001F0CFFCDF
:1019500000F025FA05B000BDDFF83405016821F478
:10196000204101608268DFF82C1522F42042826059
:1019700002680B7842EA033202608268497842EAE0
:101980000132826070470000F8B51C4600780023E1
:10199000B0F120064AD0761F1DD0761F2FD0F61E3C
:1019A00021D0B61E1DD0761E092E0AD93D3E20D06C
:1019B000761E1BD0423E11D0761F1DD04A3E07D066
:1019C00020E00FF2EC4303EB400030F8603C2DE0E8
:1019D0004FF6DD732AE04FF4334327E04FF46C43B6
:1019E00024E0C02322E04FF420431FE042F2102302
:1019F0001CE04BF2102319E046F2840316E04AF291
:101A0000DD0313E0A0F141061A2E05D2DFF8883479
:101A100003EB400636F8823CA0F161051A2D05D291
:101A2000DFF8743403EB400030F8C23C09B143F0F6
:101A300002030AB143F020030C20002143FA00F214
:101A4000CEB202F00F020DF80620491C001FCAB2E8
:101A5000032AF3DD042001F05EFC0028FAD1641EA5
:101A60009DF800009DF803109DF802209DF80130BC
:101A7000DFF82854052C00F24781DFE814F0060057
:101A80002E006B009F00CA00FE002E68DFF8104495
:101A900000F047F98606AF693C40AC6106F040565D
:101AA0002C6800F003003043204328609C06A8689F
:101AB00004F0405403F0030300F02BF99306286967
:101AC00003F0405302F0030200F027F98A06A869E8
:101AD00002F0405201F0030113E12E68DFF8C44325
:101AE00000F01FF90606AF693C40AC61870106F0C3
:101AF000406607F0800780002C683E4300F0040039
:101B00003043204328601C069E0104F0406406F028
:101B100080069B00A868344303F004032343034377
:101B20009401AB6004F08004130603F0406392005C
:101B30002869234302F0040200F0EFF88B010A0643
:101B4000A86902F0406203F0800389001A4301F0A3
:101B50000401D6E02C6824F003242C60AE6826F043
:101B60000326AE602C6924F003242C61AC6924F0B8
:101B70000324AC61840500022E6804F0407400F474
:101B800040702043304328609C051B02A86804F085
:101B9000407403F4407300F0BCF893051202286906
:101BA00003F0407302F4407200F0B7F88A05A869A8
:101BB000090202F0407201F44071A2E02E68BA4CB2
:101BC00000F0AFF88604AF693C40AC6180022C683D
:101BD00006F4401600F440603043204328609C0423
:101BE0009B02A86804F4401403F4406300F091F8E9
:101BF00093049202286903F4401302F4406200F057
:101C00008CF88A04A869890202F4401201F4406148
:101C100077E02C6824F443242C60AE6826F4432635
:101C2000AE602C6924F441242C61AC6924F4412475
:101C3000AC61040400032E6804F4402400F4405016
:101C40002043304328601C041B03A86804F440248C
:101C500003F4405300F05DF813041203286903F401
:101C6000402302F4805200F058F80A04A8690903DE
:101C700002F4402201F4805143E02C6824F47034D3
:101C80002C604703AE6826F47036AE6007F48037E8
:101C90002C6924F470342C61AC6924F47034AC6188
:101CA000C40304F4003480032E683C4300F4404035
:101CB000204330432860DC035E0304F4003406F460
:101CC00080369B03A868344303F440432343034313
:101CD0005403AB6004F48034D30303F40033920361
:101CE0002869234302F4804200F017F84B03CA032B
:101CF000A86902F4003203F4803389031A4301F423
:101D0000804111430143A961FFF726FE01F0FFFA6C
:101D1000F1BD23430343AB6070471A4302432A617A
:101D2000704726402E60AF682740AF602E6926407E
:101D30002E61704738B50446012507E0EBB200225A
:101D400000212046FFF720FE641C6D1C207810B196
:101D5000E8B20828F2DB31BD38B50446012507E0BA
:101D6000EBB2012200216846FFF70EFEA41C6D1C99
:101D7000208898B1E9B2082910DA8DF8000020888F
:101D800000F47040B0F5804FEAD0B0F5004FEBB2F0
:101D900019BF0022002100220121E4E731BD10B566
:101DA0000024042001F0B7FA0028FAD13B490020B2
:101DB000E2B2641CE3B241F82200102BF6D3BDE876
:101DC000104001F0A4BA2DE9FC4D07468B46904621
:101DD0006846072101F0B4FA002F57D03846002496
:101DE00001E0641CE4B210F8011B0029F9D1384667
:101DF000FFF7A0FF404600F0C4FB00262B4D00E09B
:101E0000761CF0B2584541D2002003E0404600F075
:101E1000B8FB5046A042F3DA00F1010A514691FBAB
:101E2000F4F204FB1211795C8DF80010811C91FB17
:101E3000F4F304FB13117A5C8DF80120C11C91FBB3
:101E4000F4FC04FB1C11795C8DF80210011D91FB60
:101E5000F4F204FB12117B5C8DF80330411D91FB01
:101E6000F4FC04FB1C11801D795C8DF8041090FBC0
:101E7000F4F204FB1200385C8DF80500FFF78FFFC9
:101E80006846FFF757FF28780028BFD0BDE8F38DDC
:101E90002424004026030020184500081424004094
:101EA000FCFFFFCF03FFFFF3FFF3CFFF2E03002064
:101EB000005F004200F5006700EA00AF00BF004687
:101EC00000FF00EFC0F3C7517E390EDDC217D1F11C
:101ED000200106DD000240F00040C84010445040A0
:101EE0007047D04380F000407047002070470000EA
:101EF00000280AD0B0FA80F18840D1F19D01C905CF
:101F0000020672F1004241EB10207047FF2212EAF4
:101F1000D05C1DBF12EAD153944593422BE09C4400
:101F2000D30780EA01021A4043EA002043EA012174
:101F3000A1FB0030C04238BF40007CF17F010BDBC9
:101F4000FE294ADA5B0842EAC15153EA006373F1A1
:101F5000004C51EB10207047D1F1080CDCF120014E
:101F60002FDB5B0810FA01F10B4320FA0CF073F140
:101F700000415041704794451CBF02EAD15393423F
:101F800080EA010202F000421DD0400019D0490051
:101F900017D05BB9634514D00902B1FA81F39940B7
:101FA000BCEB030CC00140F00040C1E70002B0FAF6
:101FB00080FC10FA0CF0B3EB0C0CC90141F00041AD
:101FC000B6E71000704740000AD0490008D010F171
:101FD000807F94BF11F1807F02E042F0FF407047A4
:101FE000D043704700180CD2010E7F3909D4D1F1CB
:101FF0001F015DBFC00140F00040C8406FF000000D
:1020000070470020704700002DE9F84F0020009035
:1020100000F08CFCDFF880456080022001F0FAF9C6
:1020200048B101214FF0805001F0D6FA022001F0B2
:10203000F9F9012700E0002700F07AFE00900098EF
:1020400010F00F0F0AD000F01CFE40F6027000F0F6
:1020500075FE002000F05AFE00F023FE00F063F948
:102060004FF4006001F085F9102001F0D3F9002849
:10207000FAD100F096F900F0E1FB002080F310881F
:1020800001F0F0FAFFF734FCDFF81055DFF8102507
:10209000DFF8103500202870012111701888C10761
:1020A00048BFFFF7EDF9DFF800657FBB00F0C1FD29
:1020B0000021304600F0D0FD00F0C7FD962201213E
:1020C000201DFFF780FE287800284AD14FF44041B8
:1020D0004FF4403001F00BF90FF2F440FFF72AFE05
:1020E000287808B900F01DF9287808B900F019F926
:1020F000287808B900F015F9287808B900F011F926
:102100004FF48041002001F0F2F82AE0307810B15D
:10211000FFF767F925E0962201210FF2BC40FFF797
:1021200052FEDFF888146088097881423CBF401A6B
:102130006080FFF752FA07466088FFF7D9FE3946FC
:10214000FFF7E4FE4FF06651FFF7E0FEDFF86014A2
:10215000FFF7DCFEFFF746FFFFF775FA2878002847
:10216000FCD000212970DFF84C044178027801F09E
:10217000F70102F0F7024170027001F0FD0102F078
:10218000FD02417002708020DFF82C740FF26C4861
:10219000B8804021F980002020700FF278490FF2BA
:1021A0006C4A0FF2784B16E0FFF7F9FD0FF274401E
:1021B000FFF7C0FD0DE05846FFF7BCFD287808B9D1
:1021C00000F0AFF8287808B900F0ABF8062000F06E
:1021D000C5FB00212970307808B1FFF7AAF82078F4
:1021E0000628E1D8DFE800F006161D24567A05001F
:1021F000DAE7E0E7398881F040013980388880F0FB
:1022000080003880FFF7FFF928780028E1D100F03E
:1022100088F8DEE701F02FFA0028DAD101F071FA30
:10222000D7E701F028FA0028D3D101F093FAD0E7DC
:102230000FF2B830FFF77EFD287808B900F071F88A
:10224000FFF720FA287808B900F06BF8287808B969
:1022500000F067F8287808B900F063F8287808B922
:1022600000F05FF80FF28C30FFF764FD287808B9B2
:1022700000F057F8FFF709FA287808B900F051F88C
:10228000287808B900F04DF828780028BCD100F073
:1022900048F8B9E74046FFF74DFD287808B900F047
:1022A00040F8FFF71FFA287808B900F03AF82878C4
:1022B00008B900F036F8287808B900F032F8287824
:1022C00008B900F02EF800BFCEA0FFF733FD287844
:1022D00008B900F026F8FFF70FFACDE75046FFF7F0
:1022E00029FD287808B900F01CF8FFF739FA28789A
:1022F00008B900F016F8287808B900F012F8287824
:1023000008B900F00EF8287808B900F00AF8484635
:10231000FFF710FD287808B900F003F8FFF76EFA10
:10232000AAE796202DE180B5012001F0B1F8212027
:1023300001F066F90028FAD0012001F0B4F84FF45A
:10234000404001F0A0F801213F2001F031F90121C6
:102350009A4801F041F9012140F2012001F032F9DF
:10236000012000F0F1FF012001F01FF9002001F031
:102370001CF9012001F08FF8492001F041F90028F3
:10238000FAD04FF4803001F0F6F8012001F00AF99C
:10239000002001F076F8312001F032F900B1FEE7BB
:1023A00001BDF0B5002285B08DF804208DF807201E
:1023B0000121009103228DF805206946804C814E51
:1023C000814D204601F0FEF90021002001F042FA83
:1023D0000121002203918DF81020082101228DF89F
:1023E00011108DF8122003A801F048FA0F228DF881
:1023F00009208DF80A20062101228DF808108DF899
:102400000B2002A801F074FA0022ADF80620C020CB
:10241000012100908DF8041001228DF805206946F5
:10242000304601F0CFF980207083402171834FF452
:10243000005700976946284601F0C4F92F8348F2F7
:102440000E7100F08FF8204601F0BCF90B2201213B
:1024500000F08EF80B22022100F08AF80B220321F3
:1024600000F086F80B22082100F082F80B220921E7
:1024700000F07EF80B220A2100F07AF80B220F21DF
:1024800000F076F84FF6387100F06CF8304601F045
:1024900099F90B22032100F06EF80B22042100F0C1
:1024A0006AF80B22052100F066F80B22082100F0E3
:1024B00062F80B22092100F05EF80B220A2100F0DD
:1024C0005AF80B220B2100F056F80B220C2100F0D9
:1024D00052F80B220D2100F04EF80B220E2100F0D5
:1024E0004AF80B220F2100F046F840F6CF7100F0B9
:1024F00039F8284601F066F90B22002100F02FF888
:102500000B22012100F02BF80B22022100F027F80A
:102510000B22032100F023F80B22062100F01FF804
:102520000B22072100F01BF80B22082100F017F8FE
:102530000B22092100F013F80B220A2100F00FF8FA
:102540000B220B2100F00BF81021009103228DF8D3
:1025500004206946204601F035F905B0F0BD284653
:1025600001F066B9009102228DF804206946704797
:10257000204601F05DB9304601F05AB9FDF77FBF42
:10258000704738B50446114D2946A0B2FEF7BAFD92
:102590000028F9D131BD0000000000202E030020EA
:1025A0002C03002010000240010008080000080869
:1025B0000000A04126030020140402400002009005
:1025C00000000240000402400008024024030020F2
:1025D0004A5031204F4E00002020202020535441EB
:1025E0004E4442592057414B455550002052554EBC
:1025F0002020000020534C45455020004C502052D4
:10260000554E00004C5020534C5000002053544F66
:102610005020000053502D4E525443005354425901
:10262000202000004552524F52000000DFF800F019
:1026300097010020DFF800F0E1010020401EB0F11A
:10264000807F01D301207047DFF80015DFF80025F7
:1026500048600023F02010708B6007200860002085
:102660007047FEB5DFF8EC04DFF8EC140268DFF821
:10267000EC44DFF8EC540A6023684B602A688A60F7
:10268000DFF8E0241368CB60DFF8DC341E680E61ED
:10269000DFF8D86437684F61C7688F61E768CF613A
:1026A000EF680F62D7684F62DF688F62F768CF62AA
:1026B0004FF6FF710091002703218DF804108DF86B
:1026C0000570ADF806704FF0FF3111601960316090
:1026D0004FF6EE720092694601F074F84DF6FF7203
:1026E00000926946284601F06DF84FF63F70009061
:1026F0006946204601F066F84020608380216183AE
:10270000F7BDF0B5DFF85004DFF8481402680A603E
:102710004368DFF848241360DFF8443484681C60A1
:10272000C568DFF840442560DFF83C5406692E6038
:102730004769DFF8386437608769CF60C169D16065
:10274000026ADA60416AE160826AEA60C06AF06047
:10275000F0BDF8B5684600F0C6FE01984FF4FA6186
:10276000B0FBF1F005E0F8B5684600F0BCFE01985A
:102770004008FFF763FF05B000BD70B504460D4685
:10278000164600F065FE002000F024FA002000F05C
:1027900029FA002000F033FA012000F03DFA01216F
:1027A0004FF0805000F018FF4FF4C05000F0E1FDF2
:1027B000102000F02FFE0028FAD1204600F063FE22
:1027C000002000F070FE00F075FE0028FBD115B16E
:1027D000802000F074FE002000F05AFE002000F07F
:1027E00050FE16B9002000F056FEBDE870400020F3
:1027F00000F056BE80B5012000F04AFE212000F016
:10280000FFFE0028FAD0012000F0F9F9012000F0C5
:10281000E9F9012000F0DEF9012000F044FE00F0AB
:1028200049FE0428FBD1002000F049FE002000F002
:1028300052FEBDE80240002000F048BE10B586B050
:1028400001214FF4007000F0BDFEC94C204601F09C
:1028500083F8684601F0B2F80021009101228DF85A
:102860000510029104918DF804208DF8142069461A
:10287000204601F082F8062301220421204601F0BF
:10288000D3F81021204601F0B6F801224FF4403170
:10289000204601F0A8F80121204601F09BF84021D4
:1028A000204601F03BF90028F9D006B010BD70B504
:1028B000FFF7C4FF012001F0A2F8AD4D062301226D
:1028C0001121284601F0B0F800260424284601F022
:1028D000E5F80221284601F021F90028F9D0284620
:1028E00001F0E1F88619641EF0D1002001F087F8AC
:1028F00000214FF4007000F065FE3604B00C70BD8E
:102900009C490A68C2618B6843624A680262CB686C
:1029100083624A6902630B69C36205200860C8606C
:102920004FF080538B6000204860704770B5FFF710
:1029300085FF002504248E4E304601F0AFF80221B9
:10294000304601F0EBF80028F9D0304601F0ABF842
:102950004519641EF0D12D04A80C70BD2DE9F84F67
:102960000646DFF81482DFF8F891002090B088F86E
:1029700000004FF4005BA9F818B000214FF480402C
:1029800001F0F3F8002000F095FC012000F0C3FCFA
:102990000128FAD07949774F6C4C00200870002547
:1029A000FFF75FFE002000F0DEFC062E4FF0010A6C
:1029B00013D8DFE806F0041321404F4F660000F003
:1029C000F8F800F0DDF82560BD604FF6FF7000F00C
:1029D000D9F800F0D7F8401EF9D17DE000F0E9F811
:1029E00000F0CEF8FFF7BFFE0120FFF7CAFD01217E
:1029F000002000F0DAFC6FE000F0E0F800F0E1F811
:102A000000F0BEF800F0E0F8012000F0BBFC202050
:102A100000F000FD0028FAD08AF31088FFF706FEC8
:102A200085F31088002000F0ADFC202000F0F2FCBF
:102A30000028FAD150E000F0C1F800F0C2F800F030
:102A40009FF800F0C1F88AF31088FFF7F3FD85F3D3
:102A5000108841E000F0B2F800F0B3F800F090F810
:102A600000202060052E07BF002201210122012144
:102A7000FFF783FEA9F81AB00121012000F0A6FC9F
:102A80002AE000F09BF800F09CF84FF4802001F061
:102A900067F800214FF4C00001F048F802228DF8D9
:102AA0000420CDF800B0ADF806508DF80550694609
:102AB000484600F087FE00220D21484600F0B8FE8F
:102AC00000F05EF800F080F80121002000F042FCE8
:102AD00000F077F800F08EFCFFF78CFEFFF739FE70
:102AE000099838604FF4006000F043FC102000F0BB
:102AF00091FC0028FAD1FFF719FFA9F818B088F85F
:102B000000A004460B99B9600A9878600C98F860A8
:102B10000E9878610D983861FFF705FC002000F0F1
:102B200031FC002000F022FC002000F075F8FFF7D7
:102B3000E8FD012000F076FC012000F008FCFEF723
:102B4000D7FE204611B0BDE8F08F000010E000E095
:102B500023ED00E000000240B0020020000402402B
:102B600000080240000C0240001002400014024025
:102B7000002401401C3802402C0300202D030020BB
:102B800002A8BDE600BF00BF00BF00BF00BF00BF7E
:102B900000BF00BF00BF00BF00BF00BF00BF00BF3D
:102BA00000BF00BF00BF00BF00BF00BF00BF00BF2D
:102BB0007047002200214FF44040DEE5002000F085
:102BC000C6BB012000F0D2BB002020600022012102
:102BD000D3E50000DFF890110A68520840EA42008D
:102BE00008607047DFF8801120B1086840F00200EB
:102BF000086070470A6822F002020A607047DFF836
:102C0000681120B1086840F00400086070470A6845
:102C100022F004020A607047DFF84C1120B1086806
:102C200040F00800086070470A6822F008020A6055
:102C30007047DFF838010168CA0705D5DFF83011A1
:102C4000DFF83021816082607047DFF82001016881
:102C500041F001010160704738B500F00DF804281B
:102C600003D100F003F8257042E032BD3F4801680F
:102C700021F480710160704704460D464FF4004016
:102C800084E03A4801684A070AD50168CA0703D5B3
:102C90003749384A816082603749384A01610261A8
:102CA00070473248016841F48021016070477DB16E
:102CB00008684A68204380B2C34340EA034042EABE
:102CC0001442086092B2D04342EA00424A600FE0E8
:102CD0000A684868A243E443C4F30F4392B2034036
:102CE000D04342EA00420A60DA4343EA02434B60BF
:102CF0004FF40040BDE8324048E040EA0401C943D7
:102D000044EA014404434FF400403FE010B5044658
:102D10001B480068000C00F0F000FFF7EEFF0428ED
:102D200004BF18480460BDE810404FF400402DE097
:102D300013480068000C00F00F007047124908604B
:102D4000704711490A680420D30701D50120704754
:102D50000A68D30501D502207047096811F4F05FB5
:102D600018BF032070470000003C0240043C0240B2
:102D7000EFCDAB8905040302C8D9EAFB2726252439
:102D80001C3C02400400F81F183C02401CB5042102
:102D90008DF800100446FFF7D4FF8DF8000005E021
:102DA0004CB1FFF7CEFF8DF80000641E9DF80000C7
:102DB0000128F5D014B905208DF800009DF8000019
:102DC00016BD00004FF0807C1CEB400F94BF1CEB45
:102DD000410F05E040EA010C1CEB0C0F01D28142CF
:102DE000704718BF884270474FF0807C1CEB400F43
:102DF00094BF1CEB410F05E040EA010C1CEB0C0FEB
:102E000001D28842704718BF81427047014648B1DD
:102E1000B0FA80F18840C91CC1F58461090501EB55
:102E2000D021400570470000F0B540F2FF7581EAFF
:102E3000030C0CF0004C15EA11541DBF15EA135792
:102E4000AC42AF42E5E0BC41C1F31301C3F313034D
:102E5000801A994143F4801304D2641E4000494112
:102E600080185941C90241EA5051B1FBF3F603FB06
:102E70001611A2FB0675D7EBC020A94102D2761E1F
:102E800080185941C90241EA5051B1FBF3FE03FBDE
:102E90001E11A2FB0E75D7EBC020A94103D2AEF1E3
:102EA000010E80185941890241EA9051760546EA9F
:102EB0008E2EB1FBF3F603FB1611A2FB0675D7EBC2
:102EC0008020A94102D2761E80185941C90241EAE8
:102ED00050514EEA060EB1FBF3F603FB1611A2FBAE
:102EE0000675D7EBC020A94102D2761E8018594141
:102EF000C90241EA5051B1FBF3F703FB1711A2FBE2
:102F00000735D3EBC020A94167F100070CBF004291
:102F100047F0010766F3D5274FEA1E31B80814F5CC
:102F2000806412DDBD0775F1004250EB0E5051EB8D
:102F3000045111F5801F5CBF41EA0C01F0BD4CF05B
:102F40007F6141F0E0410020F0BDBD076D0840EA1F
:102F50000E5041F48011D4F10104B4F120060ADAD4
:102F6000C4F120060200E04001FA06F3E1401843F4
:102F7000B24015430EE0342C13DCC6F1200445EAC0
:102F800040056D0820FA06F2154321FA06F0A1402B
:102F90000D43002175F1004250F1000051EB0C018E
:102FA000F0BD00205FEA0C01F0BDCFB992185B4183
:102FB000B3FA83F704BFB2FA82F6BF190B3FB7F139
:102FC00020062FBF02FA06F3BB40C7F1200622FA03
:102FD00006F638BF3343BA401CB1E419641E33E728
:102FE0007F4231F00041B1FA81F404BFB0FA80F6BB
:102FF000A4190B3CB4F120062FBF00FA06F1A14042
:10300000C4F1200620FA06F638BF3143A0403C1B2D
:103010001AE7AC421ABF05EA1357AF4212E050EA72
:1030200041061CBF52EA4306BFE750EA410730465B
:1030300061461CBF41EA0551F0BD52EA430C08BF8E
:10304000C143F0BD00204FF4001616EB410F98BFAE
:1030500016EB430F08BF16EB410F24BFC14305E039
:1030600016EB430F0CBF61464CEA0551F0BD000062
:10307000B0B581EA030C0CF0004C40F2FF7515EA84
:1030800011541DBF15EA1357AC42AF4239E0E419A1
:1030900023EA455343F48013C90241F0004141EA59
:1030A000505EC7021100A7FB020200284FF000008B
:1030B000EEFB01204FF00001E3FB072118BF42F0B7
:1030C0000102401800214941E3FB0E01A4F5806490
:1030D0000F0302D252004041494154F101046CDD1A
:1030E000470872F1004250F1000051EB0451A1F584
:1030F00080115CBF41EA0C01B0BD4CEA05510020D3
:10310000B0BD05EA1357AC4214BFAF4241E050EAEC
:10311000410E1CBF52EA430E02E061460020B0BDE2
:1031200024423C441BD15FEA070EF6D0090302BFDC
:1031300001460020AEF1140EB1FA81F7AEEB0704A0
:1031400001FA07FE0C37C7F1200100FA07F7C84063
:103150004EEA000E23EA455343F48013A2E733F00E
:103160000043B3FA83F704BFB2FA82FE77440B3F01
:10317000E41BB7F1200E2FBF02FA0EF3BB40C7F1DC
:10318000200E22FA0EFE38BF43EA0E03BA40641C3A
:1031900082E750EA410E14BF52EA430E6FF000017D
:1031A0004FF4001717EB430F8ABF194617EB410F77
:1031B000B5E74CEA05510020B0BDD4F10104B4F1EB
:1031C00020070FDAC4F12007520828BF42F001029D
:1031D00010FA07F501FA07F7E1BF2A43E040384348
:1031E000E1400FE0352C98DCC7F1200452EA4002A0
:1031F00020FA07F218BF42F0010231FA07F0A140AD
:103200000A43002172F1004250F1000051EB0C0121
:10321000B0BD000001F000428B1AA3F16051B1F57E
:10322000801F0ADBB1F17F6F1FD242EAC102C100E9
:1032300071F1004142EB507070470B15C3F1090367
:10324000212B10D2890241EA905180020128494184
:1032500041F0004121FA03F0C3F12003994071F1DC
:10326000004150417047100070476FF0000013EBB1
:10327000103F5CBF000E42EAC050704738B52A4C80
:103280000546606820F07F70606061682A68686841
:1032900002431143616000F010F8206820F07E00C6
:1032A00020602268AB68E96828690B4303431A432E
:1032B000226031BD1D49086070474FF400401C4931
:1032C0000968401E01D08906F9D570471949086080
:1032D000704719490A6822F0700203E016490A682B
:1032E00022F460720A600B6818430860704710B5DA
:1032F000114A136823F47833136008431468204399
:10330000106010BD0C490A6822F4E052EAE70B494C
:10331000012008607047064A1368014600200B42EE
:1033200018BF0120704700000024004000800442C4
:10333000082400401C800442042400400881044208
:10334000002200F041BC00003949086070473A494A
:103350000860704718B50024384B00941818009086
:103360000098016011BD3649086070473549086012
:10337000704730490A6822F4C052104320F00C0014
:10338000086070472B490028086806D040F001000B
:1033900008600A6842F4804205E020F4804008603A
:1033A0000A68520852000A607047224A13689B0854
:1033B00040EA8300106001292348026822F00402D9
:1033C000026001D130BF704720BF7047194A1368AF
:1033D0009B0840EA8300106001291B48026842F004
:1033E000040202600CBF30BF20BF016821F004015D
:1033F000016070470F48016841F0040101600268F4
:1034000042F0020202601048016841F004010160CC
:1034100030BF70470D4A1368014600200B4218BFA9
:103420000120704703490A6842EA80020A60704737
:1034300020000E420070004010000E42A0000E421C
:1034400028000E4224000E4210ED00E004700040FF
:1034500010B5724A7249106840F480701060936829
:1034600070480B409360146804401460116821F4A4
:10347000802111600021906820F47D009060D1606F
:1034800010BD694908E069490A6822F460421AE0FF
:10349000674908607047674900220A7008707047E2
:1034A00065490860704765490A68920840EA8200E9
:1034B000086070476148006800F00C0070475F4981
:1034C0000A6822F0F0021043086070475B490A68FE
:1034D00022F4E062F7E759490A6822F4605242EAAE
:1034E000C0020A607047F0B55049554C4E68554DC2
:1034F000554A012316F00C061CD0042E04D0082EC9
:1035000004D00C2E04D015E005601BE0046019E027
:103510004B684E68C3F38343C6F38156D35C4F6850
:10352000761CFF0347BF5C43B4FBF6F35D43B5FB7A
:10353000F6F306E00C68640B04F00704641CA34077
:10354000DB0303604B68046802F10C05C3F303134B
:103550000C32EB5CDC4044604B684468C3F30223EC
:10356000EB5CDC40846049684368C1F3C221515C74
:10357000CB40C360F0BD00F44031B1F5403F274A75
:1035800006D1136823F0C04300F0C0410B43136021
:1035900000F44030536B23F440335363516B0843C2
:1035A000506370472949086070472949086070478F
:1035B000284A002919BF11680843136823EA00004C
:1035C00010607047244A002919BF11680843136826
:1035D00023EA000010607047204A002919BF1168D3
:1035E0000843136823EA0000106070471C4A002952
:1035F00019BF11680843136823EA00001060704780
:1036000001464A090548012A0CBF0068406B01F0D9
:103610001F01C84000F00100704700000038024060
:103620000CC0FF88FEFFFEEE023802400438024064
:1036300000004742353802408006474208380240C1
:1036400000127A000024F40024000020D80647422B
:10365000DC0647421C380240203802402438024031
:103660001438024080B5504800F0DEFABDE8024050
:1036700050A000F037BB38B54C4C607A30B9207A96
:10368000FDF7D1FAFDF731FB01206072FDF7CCFCAC
:1036900048B9207A0022002100F032FB217A002074
:1036A000491C60722172207A012828D100212172E0
:1036B00004F1140000F0D5FA04F1140000F0B8FB96
:1036C00004F110016420FDF71DFDB0B9384D2888C4
:1036D00080F04000288004F1140000F049FC28B973
:1036E000288840F080002880002105E02A884FF6D5
:1036F0007F7002402A800121E160002032BD01205C
:1037000032BDE0B52020ADF80000ADF80200ADF804
:103710000400B0212F20ADF80610ADF808002521D7
:10372000224AD068ADF80A1080B1907842F2107247
:1037300050436946C009FDF7EDFEB020ADF8060024
:103740002F212520ADF80810ADF80A006846FEF7D5
:1037500003FB07BD3022E0B58DF801208DF8022073
:103760008DF803208DF80420202020228DF80520DC
:103770008DF800000D4AD06888B19078FF22772834
:10378000A8BF8DF804200ADA5128A8BF8DF80320BD
:1037900005DA0528CCBF8DF802208DF80120684697
:1037A000FEF7C8FA07BD0000300100201C01002010
:1037B00014040240484600087C460008E00200204D
:1037C00003000000F0B5002401220D6802FA04F3A2
:1037D0001D409D4222D165000326AE40076891F846
:1037E00004C0F64300F01EF807600F79012F18BFE0
:1037F000022F0CD1876891F805C000F013F887609C
:10380000878827EA03038F79A7403B438380C368F7
:10381000CF791E4007FA05F53543C560641C102CAE
:10382000D3D3F0BD37400CFA05FC4CEA07077047CC
:1038300010B5CB0800EB8300890001F01C01036A7E
:103840000F248C40A34303628A40036A1A43026236
:1038500010BD000070B5084B8A0021F0030102F092
:103860000C025C580F259540AC435C5090405E586C
:103870003043585070BD00000800014060B5026838
:103880008179194BD24321B31D682A401A605A68C6
:1038900001688A435A60017959180D680268154316
:1038A0000D609E6801688E439E60DA6801688A43F5
:1038B000DA6041790268102907D199680A439A6051
:1038C000DA6800680243DA6060BD5B1819680A4371
:1038D00003E000791B1819680A401A6060BD0000F7
:1038E00000BF024908607047000401401404014011
:1038F000F0B50378C1781C460122D9B112490B6892
:103900004578867803F4E063C3F5E0631B0A0F276C
:10391000C3F10401DF408D403E4035430B490C4B61
:103920002D010D55017801F01F008240490943F82F
:103930002120F0BD03F01F03064802FA03F36409D7
:1039400040F82430F0BD00000CED00E000E400E0A1
:1039500000E100E080E100E02F49884200D070479C
:1039600080B501214FF40070FFF740FEBDE8044030
:1039700000214FF40070FFF739BE10B54368274AA5
:103980000C7913400A6843EA0423134343608468B4
:10399000234B0A691C40CB6814438A681C434B794B
:1039A000144344EA43048460026B097D4B1E22F0F9
:1039B000F872DBB242EA0352026310BD4FF040726C
:1039C00000210160C26001710122417181600161C9
:1039D000027570470029816812BF41F00101490852
:1039E000490081607047002A426814BF114322EAEF
:1039F000010141607047826822F0F0028BE00949C2
:103A000020B1086840F40000086070470A6822F49A
:103A100000020A607047000000240140FFFEFFFC26
:103A2000FDF7FFC00427014070B500F03FF81F23E9
:103A3000072A07DA521E02EB8202046C00F028F813
:103A4000016470BD0C2A07DCD21F02EB8202C46B3A
:103A500000F01EF8C16370BD132A07DA0D3A02EBBD
:103A60008202846B00F014F8816370BD192A07DAB2
:103A7000133A02EB8202446B00F00AF8416370BD16
:103A8000193A02EB8202046B00F002F8016370BD88
:103A9000934024EA0303914019437047816841F041
:103AA000804181607047806D80B2704707251E2974
:103AB0000BDBA1F11E0404EB4404C66DA54026EA0D
:103AC0000505A3402B43C365704714290BDBA1F107
:103AD000140404EB4404C668A54026EA0505A34087
:103AE0002B43C36070470A290BDBA1F10A0404EBE6
:103AF00044040669A54026EA0505A3402B4303615B
:103B0000704701EB41044669A54026EA0505A3403C
:103B10002B43436170471143816070470246002088
:103B200012680A4218BF01207047000010B500F06B
:103B300009F823F4E0031360146820431060FF20A9
:103B4000D06110BDDFF87420CA23D3615324D4613F
:103B50000843136870470A600B6818430860704791
:103B600018490A6822F48022F5E710B5134ACA23DF
:103B7000D3615324D461002900F00403116820F0BC
:103B8000040004D008431060906B034305E021EA71
:103B900000001060906B20EA03039363FF21D16162
:103BA00010BD07490B680003000C40F0800203F0D1
:103BB000800363EA02020A607047000008280040A0
:103BC0000C28004040280040401810F0030308D0A3
:103BD000C91A1FD3DB0748BF00F8012D28BF20F802
:103BE000022D130030B414461546103928BF20E9C1
:103BF0003C00FAD8490728BF20E90C0048BF40F82C
:103C0000042D890028BF20F8022D48BF00F8012D9F
:103C100030BC7047C91818BF00F8012DCB0728BF6A
:103C200000F8012D704700002DE9F04100F038F850
:103C300011E03869016A0A68904700F038F807E037
:103C4000304600F044F83078202818BF2228F0D001
:103C5000083608F10108A1885FFA88F08842EFD39E
:103C60001BE02DE9F04100F01BF811E03869016A12
:103C70004868804700F01BF807E0304600F027F85E
:103C80003078202818BF2228F0D0083608F1010823
:103C9000A1885FFA88F08842EFD3E580BDE8F08123
:103CA0000446002526680E4F2572A84670473869DD
:103CB00001684A68C2F3801008B101202072386997
:103CC000C1690068027811F832100D437047044949
:103CD000C8600278203A032A9CBF40680861704798
:103CE0000403002080B50549486000F081F9010017
:103CF00003D1BDE80140FCF7A3BE02BD04030020D0
:103D00002DE9FE4F484B5B6803EB00156E682F688A
:103D100001914FF00009C846924618E0AA681219AE
:103D200059469088FDF7A2F9A96801F108021053DD
:103D3000FDF798F9A9680A5960F342020A5102E0B6
:103D4000083121F804B0761CFF1C08F10108A9898C
:103D50005FFA88F0884263D234780C204443A86824
:103D60000159C1F3C1000328EDD1A86841F0010158
:103D700001513878FDF75AF9A968DFF8B0E08346B9
:103D800001F10A0001F10A03025BADF8002023F8FB
:103D900004B00819BEF8002093450AD2A96800684B
:103DA000022262F342000851083100230B5391466E
:103DB000C9E7BEF802305B4509D2026842F006024C
:103DC00002600831002008534FF00209BBE7FDF7FD
:103DD0004BF90028A2D0019850B1BDF80000019A1B
:103DE000594690478346A86800F10A0121F804B0BB
:103DF0005946A86800198088FDF738F98346FDF711
:103E000031F9A9680B5960F342030B515FEA0A00CC
:103E100096D05846D047A96801F10802105392E79E
:103E20004846BDE8FE8F000004030020400100204A
:103E3000704700002DE9F14F82B000270298DFF8AB
:103E4000A491ADF80010904605680124BB46BA461F
:103E5000002601E00835761C02998A88F0B290426B
:103E60002ED22846FFF733FFD9F80C00007820281F
:103E700018BF212803D0222818BF232809D1D9F838
:103E8000100001680A78022AE4D1B0F80CB0D0F82A
:103E900008A0002107E0012702E0002FFBD5002445
:103EA0000AF10C0A491CC8B25845D3DABAF908001D
:103EB0000028F4D0F1D5002FF1DC4FF0FF37EFE709
:103EC0000CB1ADF80080BDF80000BDE8FE8F2DE913
:103ED000F14F05688B468BF0FF004FF00008401C47
:103EE0000024C2461FFA80F900261FE0B4F908102A
:103EF000A088FDF7BEF8A188A279000202EB01229A
:103F000000FB0BF009FB0200010AA171000CA0806C
:103F10002046FDF7B1F8012804BF0020D0470C343B
:103F20007F1CF8B24045E1DB0835761C00998A8891
:103F3000F0B290421AD22846FFF7C9FE2948C1685C
:103F40000878202818BF212803D0222818BF23284A
:103F50000AD12448006901680A78022AE4D1B0F83D
:103F60000C808468DFF880A00027DAE7BDE8F18FD5
:103F700010B50446A07900F03F00012812D1A07AC4
:103F8000A8B91A48174A016821F002010160138894
:103F9000A381016841F00201016001200021A072AB
:103FA000617206E00020A0726072012010BD607A8C
:103FB00048B904F10C014FF4FA70FDF7A3F810B9F9
:103FC0000120607202E0607A0028EED014220A21FB
:103FD0002046FFF72FFF01462046FFF778FF00201D
:103FE00010BD0000040300202D04000810E000E0D4
:103FF0000B4801684FF4FA62B1FBF2F0401EB0F1D9
:10400000807F01D3022070470649074A4860002399
:10401000F02010708B60072008600020704700BF00
:104020005C00002010E000E023ED00E00000000054
:104030000800000010000000180000000000000050
:1040400000000000300000003800000049000000BF
:10405000510000005900000079000000000000003D
:104060003100000039000000410000004000000065
:104070004800000081000000000000002100000056
:1040800029000000D9000000E1000000000000004D
:104090000000000000000000000000009000000090
:1040A00098000000A0000000A800000050000000E0
:1040B0005800000060000000680000007000000070
:1040C000780000000100000009000000110000005D
:1040D00019000000E90000000000000000000000DE
:1040E00000000000000000000000000000000000D0
:1040F00000000000000000000000000000000000C0
:1041000000000000000000000000000000000000AF
:10411000000000000000000000000000000000009F
:10412000000000000000000000000000000000008F
:10413000000000000000000000000000000000007F
:10414000000000000000000000000000000000006F
:10415000000000000000000000000000000000005F
:10416000000000000000000000000000000000004F
:10417000000000000000000000000000000000003F
:1041800000000000D8000000E0000000E80000008F
:10419000F000000080000000890000009100000095
:1041A00099000000A1000000A9000000B10000007B
:1041B000B9000000C1000000C9000000D1000000EB
:1041C0007047FEE7FEE7FEE7FEE7FEE7FEE7FEE7F5
:1041D000FCF782BF38B54649464A012008704FF4C3
:1041E00080101188CB070BD5401EFAD1FEF721FDB8
:1041F00001214148FEF730FDBDE83140FEF725BD05
:104200003D49087800284DD13C4A3D4813783D4946
:104210005B1C1370DDB24478072D02D100231370AC
:104220000AE0DBB2062B44F008023BD8DFE803F0DB
:104230000413171C2326300080220A8040234B8061
:1042400004F0F7040178447001F0F701017004F004
:10425000FD04447019E040204880802202E0802064
:10426000488040220A8031BD00F025F80178427074
:1042700001F0F70108E000F01EF801E000F013F88B
:104280000178427041F00801017001F0FD0108E081
:1042900000F009F80178427041F00801017041F026
:1042A0000201017031BD80234B8040244C8042705C
:1042B00042F00202704780234B8040244C804270C1
:1042C00002F0FD02704780B5012181F310880E4A8B
:1042D000107810B1FFF77EFF02E00C490120087052
:1042E0000120FFF7FDFA002080F3108801BD0000D7
:1042F0002E030020100002400100080800000020EA
:1043000026030020180402402C0300202D03002067
:1043100080B54FF48040FFF744FCBDE802404FF405
:104320008010FFF7DDBA00001CB52F4A2F49106836
:1043300040F48070106093682D480B4093601468BF
:1043400004401460116821F48021116000219068FC
:1043500020F47D009060D16001910091136843F0DA
:1043600001031360106800F002000090009818B973
:104370000198B0F5A04FF5D11068400800F0010099
:104380000090009801282AD11A480168490849007C
:104390000160036823F002030360016821F0040157
:1043A00001604FF40061506A40F080505062124842
:1043B00001604368D906FCD4906890609168916070
:1043C000906890609168890889009160906840F0D9
:1043D00001009060906800F00C000428FAD14FF0C2
:1043E00000600649086013BD003802400CC0FF8819
:1043F000FEFFFEEE003C02400070004008ED00E0D1
:10440000100000009305000830000000530500086C
:1044100001000000FD04000823000000000000006F
:1044200025000000B704000829000000D50400089A
:104430000200000000000000220000000000000058
:1044400026000000000000002A000000000000001C
:1044500004000000A9060008240000005F06000810
:10446000080000001B070008800000007D250008F0
:10447000B0000000A9070008A1000000A90700087B
:10448000A2000000A9070008A4000000A907000876
:10449000A8000000A90700084000000081250008CE
:1044A000F0B40246106895681318506803EB500486
:1044B000C0071CD54D441AE013F8017B05F8017BB9
:1044C000491EF9D198B113F8011BC6F38106032EDA
:1044D00008BF13F8016B01EB06214942801C2944F7
:1044E00005D011F8016B05F8016B401EF9D1A3420C
:1044F0000ED013F8016B16F0030104BF13F8011B73
:10450000C91C30090F28DBD113F8010B0F30D7E796
:10451000F0BC02F10C00704700FE1467001D144748
:10452000009D009C003F00FA1400005341980019C0
:10453000485A095A005F00FC015F01FC00AF1404F7
:10454000005BC018815AC9005800C00510B5074962
:1045500079441831064C7C44163404E00A68081D7E
:10456000114488470146A142F8D110BD5000000017
:104570006C0000002020202020202A2A20424941CF
:10458000532043555252454E54202A2A204A503136
:10459000204F4646202A2A001C0100201803002034
:1045A000E0020020030000006C46000824460008DA
:1045B000800080000044000854460008E3CAFFFF62
:1045C000F00000004002002000000000D5FEFFFFC8
:1045D00080010000E60200000000002000F00DF85D
:1045E000002801D0FFF7B2FFAFF300800020AFF347
:1045F0000080FDF709FD00F002F80120704700F08F
:1046000001B800000746384600F002F8FBE700005A
:1046100080B5AFF30080024A11001820ABBEFBE763
:10462000260002000000A0FFA0002000000060FFA4
:1046300020FF60000000000001488047014800475B
:1046400029430008614600080107060825240211D5
:10465000100000002501000877010008CB010008C8
:10466000AFF30080AFF30080FFF7B8FF0002000156
:10467000000300002000000098450008000102002F
:10468000FFF7FEBFFFF7FEBFFFF7FEBFFFF7FEBF5E
:10469000FFF7FEBFFFF7FEBFFFF7FEBFFFF7FEBF4E
:1046A000FFF7FEBFFFF7FEBFFFF7FEBFFFF7FEBF3E
:1046B000FFF7FEBFFFF7FEBFFFF7FEBFFFF7FEBF2E
:1046C000FFF7FEBFFFF7FEBFFFF7FEBFFFF7FEBF1E
:1046D000FFF7FEBFFFF7FEBFFFF7FEBFFFF7FEBF0E
:1046E000FFF7FEBFFFF7FEBFFFF7FEBFFFF7FEBFFE
:1046F000FFF7FEBFFFF7FEBFFFF7FEBFFFF7FEBFEE
:10470000FFF7FEBFFFF7FEBFFFF7FEBFFFF7FEBFDD
:10471000FFF7FEBFFFF7FEBFFFF7FEBFFFF7FEBFCD
:10472000FFF7FEBFFFF7FEBFFFF7FEBFFFF7FEBFBD
:10473000FFF7FEBFFFF7FEBFFFF7FEBFFFF7FEBFAD
:10474000FFF7FEBFFFF7FEBFFFF7FEBFFFF7FEBF9D
:1047500012000122200120112A2A2033324C313547
:104760003243444953434F5645525915212040087E
:10477000030406080C101820300001200201020377
:104780000404E002060708091C2101611CF0024133
:104790000024F40001100202400004041208041274
:1047A0000C04121004121804121C041214049101B7
:1047B00012010D1202041204041208041210042142
:1047C0002112800422201010027C004012041214D6
:1047D00004121604121804121A04121C04F0020324
:1047E0001E7C0040BD9003744600080119100B3276
:1047F00000A00F08000A0000440008541C101B34DD
:104800004940B13448354A88608A60086840F010F1
:1048100000086070470A6822F010020A0A10092F87
:10482000490028086806D040F0011A200A0A6842A8
:10483000F4804205E020F480400E2002520852002D
:1048400026200680B50120FFF7D9FF06F01C0DE6F3
:10485000FF2349244A4FF40050088000F006F80076
:10486000F004F81088C107F8D524E000BF02614ABF
:1048700032B44A4002C1FF11494810110E48016884
:104880008908890041F00101016000F007F800206B
:104890001402A1FFBDE842100220ACE7092010017C
:1048A00021F0041C122044140C003C024037261551
:1048B00004FDFCFBFA007024157C16108800021021
:0348C000ED00E028
:040000050800466148
:00000001FF
